{
  "contractName": "OwnerIdentity",
  "abi": [
    {
      "inputs": [],
      "payable": false,
      "stateMutability": "nonpayable",
      "type": "constructor"
    },
    {
      "constant": false,
      "inputs": [
        {
          "name": "_address",
          "type": "address"
        }
      ],
      "name": "addAdmin",
      "outputs": [],
      "payable": false,
      "stateMutability": "nonpayable",
      "type": "function"
    }
  ],
  "bytecode": "0x6060604052341561000f57600080fd5b60008054600160a060020a033316600160a060020a0319909116811782558152600160208190526040909120805460ff1916909117905560f5806100546000396000f300606060405260043610603e5763ffffffff7c01000000000000000000000000000000000000000000000000000000006000350416637048027581146043575b600080fd5b3415604d57600080fd5b606c73ffffffffffffffffffffffffffffffffffffffff60043516606e565b005b6000543373ffffffffffffffffffffffffffffffffffffffff908116911614609557600080fd5b73ffffffffffffffffffffffffffffffffffffffff166000908152600160208190526040909120805460ff191690911790555600a165627a7a72305820addc8d66f01fb348d0384df7b80366b4dfad233c872e319dba49ba6d15561a7d0029",
  "source": "pragma solidity ^0.4.19;\n\ncontract OwnerIdentity {\n    \n  function OwnerIdentity() public {\n        _owner = msg.sender;\n        admins[msg.sender] = true;\n  }\n   \n    address _owner;\n    \n    mapping(address => bool) private admins;\n    \n    modifier _adminOnly() {\n        require(admins[msg.sender]);\n        _;\n    }\n    \n    modifier _ceoApprove() {\n        require(msg.sender == _owner);\n        _;\n    }\n    \n    function addAdmin(address _address) _ceoApprove() public {\n        admins[_address] = true;\n    }\n    \n}\n",
  "sourcePath": "/Users/m_655507/Documents/Projects/BlockChain/ethDenver-refugee-identity/src/ethereum/contracts/OwnerIdentity.sol",
  "compiler": {
    "name": "solc",
    "version": "0.4.19+commit.c4cbbb05.Emscripten.clang"
  },
  "schemaVersion": "1.0.1",
  "updatedAt": "2018-02-17T17:46:40.315Z"
}