{
  "contractName": "OwnerIdentity",
  "abi": [
    {
      "inputs": [],
      "payable": false,
      "stateMutability": "nonpayable",
      "type": "constructor"
    },
    {
      "constant": false,
      "inputs": [
        {
          "name": "_address",
          "type": "address"
        }
      ],
      "name": "addAdmin",
      "outputs": [],
      "payable": false,
      "stateMutability": "nonpayable",
      "type": "function"
    },
    {
      "constant": false,
      "inputs": [],
      "name": "isAdmin",
      "outputs": [
        {
          "name": "",
          "type": "bool"
        }
      ],
      "payable": false,
      "stateMutability": "nonpayable",
      "type": "function"
    }
  ],
  "bytecode": "0x6060604052341561000f57600080fd5b60008054600160a060020a033316600160a060020a0319909116811782558152600160208190526040909120805460ff19169091179055610159806100556000396000f30060606040526004361061004b5763ffffffff7c0100000000000000000000000000000000000000000000000000000000600035041663704802758114610050578063b6db75a01461007e575b600080fd5b341561005b57600080fd5b61007c73ffffffffffffffffffffffffffffffffffffffff600435166100a5565b005b341561008957600080fd5b610091610101565b604051901515815260200160405180910390f35b6000543373ffffffffffffffffffffffffffffffffffffffff9081169116146100cd57600080fd5b73ffffffffffffffffffffffffffffffffffffffff166000908152600160208190526040909120805460ff19169091179055565b73ffffffffffffffffffffffffffffffffffffffff331660009081526001602052604090205460ff16905600a165627a7a72305820bc50d8c24bae45dacd1b93f3fc8a534faf4130ed72aa8a6a1368744e32c4b32f0029",
  "source": "pragma solidity ^0.4.19;\n\ncontract OwnerIdentity {\n    \n  function OwnerIdentity() public {\n        _owner = msg.sender;\n        admins[msg.sender] = true;\n  }\n   \n    address _owner;\n    \n    mapping(address => bool) internal admins;\n    \n    modifier _adminOnly() {\n        require(admins[msg.sender]);\n        _;\n    }\n    \n    modifier _ceoApprove() {\n        require(msg.sender == _owner);\n        _;\n    }\n    \n    function addAdmin(address _address) _ceoApprove() public {\n        admins[_address] = true;\n    }\n\n    function isAdmin() public returns(bool) {\n        return admins[msg.sender];\n    }\n\n    \n}\n",
  "sourcePath": "/Users/m_655507/Documents/Projects/BlockChain/ethDenver-refugee-identity/src/ethereum/contracts/OwnerIdentity.sol",
  "compiler": {
    "name": "solc",
    "version": "0.4.19+commit.c4cbbb05.Emscripten.clang"
  },
  "schemaVersion": "1.0.1",
  "updatedAt": "2018-02-18T03:30:27.474Z"
}