{
  "contractName": "RefugeeIdentity",
  "abi": [
    {
      "constant": false,
      "inputs": [
        {
          "name": "_address",
          "type": "address"
        }
      ],
      "name": "addAdmin",
      "outputs": [],
      "payable": false,
      "stateMutability": "nonpayable",
      "type": "function"
    },
    {
      "constant": false,
      "inputs": [
        {
          "name": "_fullName",
          "type": "bytes32"
        },
        {
          "name": "_origin",
          "type": "bytes32"
        },
        {
          "name": "_organization",
          "type": "bytes32"
        },
        {
          "name": "_ipfs1",
          "type": "bytes32"
        },
        {
          "name": "_ipfs2",
          "type": "bytes32"
        }
      ],
      "name": "addPerson",
      "outputs": [],
      "payable": true,
      "stateMutability": "payable",
      "type": "function"
    },
    {
      "constant": false,
      "inputs": [
        {
          "name": "_id",
          "type": "uint256"
        },
        {
          "name": "_fullName",
          "type": "bytes32"
        },
        {
          "name": "_origin",
          "type": "bytes32"
        },
        {
          "name": "_organization",
          "type": "bytes32"
        },
        {
          "name": "_ipfs1",
          "type": "bytes32"
        },
        {
          "name": "_ipfs2",
          "type": "bytes32"
        }
      ],
      "name": "editPerson",
      "outputs": [],
      "payable": true,
      "stateMutability": "payable",
      "type": "function"
    },
    {
      "constant": true,
      "inputs": [
        {
          "name": "_id",
          "type": "uint256"
        }
      ],
      "name": "getOnePersonById",
      "outputs": [
        {
          "name": "",
          "type": "uint256"
        },
        {
          "name": "",
          "type": "bytes32"
        },
        {
          "name": "",
          "type": "bytes32"
        },
        {
          "name": "",
          "type": "bytes32"
        },
        {
          "name": "",
          "type": "bytes32"
        },
        {
          "name": "",
          "type": "bytes32"
        }
      ],
      "payable": false,
      "stateMutability": "view",
      "type": "function"
    },
    {
      "constant": true,
      "inputs": [],
      "name": "getAll",
      "outputs": [
        {
          "name": "",
          "type": "uint256[]"
        },
        {
          "name": "",
          "type": "bytes32[]"
        },
        {
          "name": "",
          "type": "bytes32[]"
        },
        {
          "name": "",
          "type": "bytes32[]"
        },
        {
          "name": "",
          "type": "bytes32[]"
        },
        {
          "name": "",
          "type": "bytes32[]"
        }
      ],
      "payable": false,
      "stateMutability": "view",
      "type": "function"
    },
    {
      "constant": false,
      "inputs": [
        {
          "name": "_address",
          "type": "address"
        },
        {
          "name": "_id",
          "type": "uint256"
        }
      ],
      "name": "transferIdentityOwnership",
      "outputs": [
        {
          "name": "",
          "type": "bool"
        }
      ],
      "payable": true,
      "stateMutability": "payable",
      "type": "function"
    }
  ],
  "bytecode": "0x60606040908152600060028190558054600160a060020a033316600160a060020a031990911681178255815260016020819052919020805460ff191690911790556108af8061004f6000396000f3006060604052600436106100775763ffffffff7c01000000000000000000000000000000000000000000000000000000006000350416632edd7e45811461007c57806353ed514314610098578063704802751461025857806378784e6d14610277578063dcfced38146102c6578063ee2f5266146102f1575b600080fd5b61009660043560243560443560643560843560a435610308565b005b34156100a357600080fd5b6100ab6103ad565b6040518080602001806020018060200180602001806020018060200187810387528d818151815260200191508051906020019060200280838360005b838110156100ff5780820151838201526020016100e7565b5050505090500187810386528c818151815260200191508051906020019060200280838360005b8381101561013e578082015183820152602001610126565b5050505090500187810385528b818151815260200191508051906020019060200280838360005b8381101561017d578082015183820152602001610165565b5050505090500187810384528a818151815260200191508051906020019060200280838360005b838110156101bc5780820151838201526020016101a4565b50505050905001878103835289818151815260200191508051906020019060200280838360005b838110156101fb5780820151838201526020016101e3565b50505050905001878103825288818151815260200191508051906020019060200280838360005b8381101561023a578082015183820152602001610222565b505050509050019c5050505050505050505050505060405180910390f35b341561026357600080fd5b610096600160a060020a036004351661060c565b341561028257600080fd5b61028d60043561064e565b60405195865260208601949094526040808601939093526060850191909152608084015260a083019190915260c0909101905180910390f35b6102dd600160a060020a03600435166024356106e4565b604051901515815260200160405180910390f35b61009660043560243560443560643560843561078d565b600160a060020a03331660009081526001602052604090205460ff16151561032f57600080fd5b60c060405190810160409081528782526020808301889052818301879052606083018690526080830185905260a083018490526000898152600390915220815181556020820151600182015560408201516002820155606082015160038201556080820151600482015560a082015160059091015550505050505050565b6103b561083c565b6103bd61083c565b6103c561083c565b6103cd61083c565b6103d561083c565b6103dd61083c565b6103e561083c565b6103ed61083c565b6103f561083c565b6103fd61083c565b61040561083c565b61040d61083c565b600060025460405180591061041f5750595b908082528060200260200182016040525096506002546040518059106104425750595b908082528060200260200182016040525095506002546040518059106104655750595b908082528060200260200182016040525094506002546040518059106104885750595b908082528060200260200182016040525093506002546040518059106104ab5750595b908082528060200260200182016040525092506002546040518059106104ce5750595b90808252806020026020018201604052509150600090505b6002548110156105f85760008181526003602052604090205487828151811061050b57fe5b602090810290910181019190915260008281526003909152604090206001015486828151811061053757fe5b602090810290910181019190915260008281526003909152604090206002015485828151811061056357fe5b6020908102909101810191909152600082815260039182905260409020015484828151811061058e57fe5b60209081029091018101919091526000828152600390915260409020600401548382815181106105ba57fe5b60209081029091018101919091526000828152600390915260409020600501548282815181106105e657fe5b602090810290910101526001016104e6565b50949b939a50919850965094509092509050565b60005433600160a060020a0390811691161461062757600080fd5b600160a060020a03166000908152600160208190526040909120805460ff19169091179055565b60008060008060008061065f61084e565b600088815260036020526040908190209060c0905190810160409081528254825260018301546020830152600283015490820152600382015460608201526004820154608082015260059091015460a08201529050805181602001518260400151836060015184608001518560a00151949d939c50919a509850965090945092505050565b600160a060020a03331660009081526001602052604081205460ff16151561070b57600080fd5b600160a060020a038316600090815260046020526040902060010154839060ff16151561073757600080fd5b6040805190810160409081528482526001602080840191909152600160a060020a0387166000908152600490915220815181556020820151600191909101805460ff191691151591909117905550909392505050565b600160a060020a03331660009081526001602052604090205460ff1615156107b457600080fd5b60c060405190810160409081526002548083526020808401899052828401889052606084018790526080840186905260a0840185905260009182526003905220815181556020820151600182015560408201516002820155606082015160038201556080820151600482015560a0820151600590910155505060028054600101905550505050565b60206040519081016040526000815290565b60c06040519081016040908152600080835260208301819052908201819052606082018190526080820181905260a0820152905600a165627a7a72305820ec79a23e256a791042e48ecd4209d627d6eb72ac720ab13227f3a5293c9548460029",
  "source": "pragma solidity ^0.4.19;\n\nimport \"./OwnerIdentity.sol\";\n\ncontract RefugeeIdentity is OwnerIdentity {\n   \n   uint counter = 0;\n   \n   struct Person {\n       uint id;\n       bytes32 fullName;\n       bytes32 origin;\n       bytes32 organization;\n       bytes32 ipfsFirst;\n       bytes32 ipfsSecond;\n   }\n   \n   struct PersonWithUport {\n       uint id;\n       bool exists;\n   }\n   \n    mapping(uint => Person) people;\n    \n    mapping(address => PersonWithUport) peopleWithUport;\n    \n    modifier _ownerAlreadyExist(address _address)  {\n        require(peopleWithUport[_address].exists);\n        _;\n    }\n    \n    function addPerson(bytes32 _fullName, bytes32 _origin, bytes32 _organization, bytes32 _ipfs1, bytes32 _ipfs2) public _adminOnly() payable {\n        people[counter] = Person(counter, _fullName, _origin, _organization, _ipfs1, _ipfs2);\n        counter++;\n    }\n    \n     function editPerson(uint _id, bytes32 _fullName, bytes32 _origin, bytes32 _organization, bytes32 _ipfs1, bytes32 _ipfs2) public _adminOnly() payable {\n        people[_id] = Person(_id, _fullName, _origin, _organization, _ipfs1, _ipfs2);\n    }\n    \n    function getOnePersonById(uint _id) public view returns(uint, bytes32, bytes32, bytes32, bytes32, bytes32) {\n        Person memory currentPerson = people[_id]; \n        return (currentPerson.id, currentPerson.fullName, currentPerson.origin, currentPerson.organization, currentPerson.ipfsFirst, currentPerson.ipfsSecond);\n    }\n    \n    function getAll() public view returns(uint[], bytes32[], bytes32[], bytes32[], bytes32[], bytes32[]) {\n        uint[] memory ids = new uint[](counter);\n        bytes32[] memory names = new bytes32[](counter);\n        bytes32[] memory origins = new bytes32[](counter);\n        bytes32[] memory organizations = new bytes32[](counter);\n        bytes32[] memory ipfsOne = new bytes32[](counter);\n        bytes32[] memory ipfsTwo = new bytes32[](counter);\n        \n        for (uint i = 0; i < counter; i++) {\n            ids[i] = people[i].id;\n            names[i] = people[i].fullName;\n            origins[i] = people[i].origin;\n            organizations[i] = people[i].organization;\n            ipfsOne[i] = people[i].ipfsFirst;\n            ipfsTwo[i] = people[i].ipfsSecond;\n        }\n        \n        return (ids, names, origins, organizations, ipfsOne, ipfsTwo);\n    }\n    \n    function transferIdentityOwnership(address _address, uint _id) public payable _adminOnly() _ownerAlreadyExist(_address) returns(bool) {\n      peopleWithUport[_address] = PersonWithUport(_id, true);\n    }\n    \n}\n",
  "sourcePath": "/Users/m_655507/Documents/Projects/BlockChain/ethDenver-refugee-identity/src/ethereum/contracts/RefugeeIdentity.sol",
  "compiler": {
    "name": "solc",
    "version": "0.4.19+commit.c4cbbb05.Emscripten.clang"
  },
  "schemaVersion": "1.0.1",
  "updatedAt": "2018-02-17T17:46:40.315Z"
}