{
  "contractName": "TodoList",
  "abi": [
    {
      "constant": true,
      "inputs": [
        {
          "name": "",
          "type": "uint256"
        }
      ],
      "name": "userAccts",
      "outputs": [
        {
          "name": "",
          "type": "address"
        }
      ],
      "payable": false,
      "stateMutability": "view",
      "type": "function"
    },
    {
      "constant": true,
      "inputs": [
        {
          "name": "",
          "type": "address"
        }
      ],
      "name": "users",
      "outputs": [
        {
          "name": "name",
          "type": "string"
        },
        {
          "name": "id",
          "type": "uint256"
        },
        {
          "name": "todoCount",
          "type": "uint256"
        }
      ],
      "payable": false,
      "stateMutability": "view",
      "type": "function"
    },
    {
      "constant": false,
      "inputs": [],
      "name": "createAccount",
      "outputs": [
        {
          "name": "",
          "type": "address"
        }
      ],
      "payable": false,
      "stateMutability": "nonpayable",
      "type": "function"
    },
    {
      "constant": true,
      "inputs": [
        {
          "name": "_account",
          "type": "address"
        }
      ],
      "name": "getTodoListLength",
      "outputs": [
        {
          "name": "",
          "type": "uint256"
        }
      ],
      "payable": false,
      "stateMutability": "view",
      "type": "function"
    },
    {
      "constant": true,
      "inputs": [],
      "name": "getAllUsers",
      "outputs": [
        {
          "name": "",
          "type": "address[]"
        }
      ],
      "payable": false,
      "stateMutability": "view",
      "type": "function"
    },
    {
      "constant": true,
      "inputs": [
        {
          "name": "_account",
          "type": "address"
        }
      ],
      "name": "getMyData",
      "outputs": [
        {
          "name": "",
          "type": "uint256[]"
        },
        {
          "name": "",
          "type": "bytes32[]"
        },
        {
          "name": "",
          "type": "bytes32[]"
        },
        {
          "name": "",
          "type": "bool[]"
        }
      ],
      "payable": false,
      "stateMutability": "view",
      "type": "function"
    },
    {
      "constant": false,
      "inputs": [
        {
          "name": "_hash1",
          "type": "bytes32"
        },
        {
          "name": "_hash2",
          "type": "bytes32"
        },
        {
          "name": "_account",
          "type": "address"
        }
      ],
      "name": "addTodo",
      "outputs": [],
      "payable": false,
      "stateMutability": "nonpayable",
      "type": "function"
    },
    {
      "constant": false,
      "inputs": [
        {
          "name": "_account",
          "type": "address"
        },
        {
          "name": "_id",
          "type": "uint256"
        }
      ],
      "name": "toggleComplete",
      "outputs": [],
      "payable": true,
      "stateMutability": "payable",
      "type": "function"
    },
    {
      "constant": false,
      "inputs": [
        {
          "name": "_account",
          "type": "address"
        },
        {
          "name": "_id",
          "type": "uint256"
        }
      ],
      "name": "deleteTodo",
      "outputs": [],
      "payable": true,
      "stateMutability": "payable",
      "type": "function"
    }
  ],
  "bytecode": "0x60606040526001600255341561001457600080fd5b61098f806100236000396000f3006060604052600436106100985763ffffffff7c01000000000000000000000000000000000000000000000000000000006000350416630ab2bb13811461009d5780630b7d62c5146100cf5780630bb545f6146100f65780632470eb2c1461010d5780639dca362f14610124578063a87430ba14610137578063e1af6264146101ee578063e2842d7914610330578063fd00568c14610396575b600080fd5b34156100a857600080fd5b6100b36004356103c7565b604051600160a060020a03909116815260200160405180910390f35b34156100da57600080fd5b6100f4600435602435600160a060020a03604435166103ef565b005b6100f4600160a060020a03600435166024356104bb565b6100f4600160a060020a036004351660243561052f565b341561012f57600080fd5b6100b361059f565b341561014257600080fd5b610156600160a060020a0360043516610649565b6040516020810183905260408101829052606080825284546002600019610100600184161502019091160490820181905281906080820190869080156101dd5780601f106101b2576101008083540402835291602001916101dd565b820191906000526020600020905b8154815290600101906020018083116101c057829003601f168201915b505094505050505060405180910390f35b34156101f957600080fd5b61020d600160a060020a0360043516610664565b6040518080602001806020018060200180602001858103855289818151815260200191508051906020019060200280838360005b83811015610259578082015183820152602001610241565b50505050905001858103845288818151815260200191508051906020019060200280838360005b83811015610298578082015183820152602001610280565b50505050905001858103835287818151815260200191508051906020019060200280838360005b838110156102d75780820151838201526020016102bf565b50505050905001858103825286818151815260200191508051906020019060200280838360005b838110156103165780820151838201526020016102fe565b505050509050019850505050505050505060405180910390f35b341561033b57600080fd5b610343610865565b60405160208082528190810183818151815260200191508051906020019060200280838360005b8381101561038257808201518382015260200161036a565b505050509050019250505060405180910390f35b34156103a157600080fd5b6103b5600160a060020a03600435166108ce565b60405190815260200160405180910390f35b60018054829081106103d557fe5b600091825260209091200154600160a060020a0316905081565b60006103f96108ec565b600160a060020a038316600090815260208190526040908190209250608090519081016040908152600284015480835260208084018990528284018890526000606085018190529182526003860190522090915081908151815560208201516001820155604082015160028201556060820151600391909101805460ff191691151591909117905550600482018054600181016104968382610913565b5060009182526020909120600290930180549190930181905560010190915550505050565b600160a060020a03821660009081526020818152604080832084845260038082019093529220015460ff161561050b5760008281526003808301602052604090912001805460ff1916905561052a565b60008281526003808301602052604090912001805460ff191660011790555b505050565b600160a060020a0382166000908152602081905260409020600481018054600019810190811061055b57fe5b906000526020600020900154816004018381548110151561057857fe5b60009182526020909120015560048101805490610599906000198301610913565b50505050565b600160a060020a0333166000908152602081905260408120600101548190156105c757610645565b50600160a060020a033316600090815260208190526040812060028082019290925581546001808301829055908101909255815490919080820161060b8382610913565b506000918252602090912001805473ffffffffffffffffffffffffffffffffffffffff191633600160a060020a0381169190911790915591505b5090565b60006020819052908152604090206001810154600282015483565b61066c610937565b610674610937565b61067c610937565b610684610937565b60008061068f610937565b610697610937565b61069f610937565b6106a7610937565b6000806106b26108ec565b600160a060020a038e16600090815260208190526040908190206004810154909a5098508890518059106106e35750595b90808252806020026020018201604052509650876040518059106107045750595b90808252806020026020018201604052509550876040518059106107255750595b90808252806020026020018201604052509450876040518059106107465750595b90808252806020026020018201604052509350600092505b6004890154831015610850576004890180548490811061077a57fe5b906000526020600020900154915088600301600083815260200190815260200160002060806040519081016040908152825482526001830154602083015260028301549082015260039091015460ff1615156060820152905080518784815181106107e157fe5b9060200190602002018181525050806020015185848151811061080057fe5b60209081029091010152604081015184848151811061081b57fe5b60209081029091010152606081015186848151811061083657fe5b91151560209283029091019091015260019092019161075e565b50949c929b5090995091975095505050505050565b61086d610937565b60018054806020026020016040519081016040528092919081815260200182805480156108c357602002820191906000526020600020905b8154600160a060020a031681526001909101906020018083116108a5575b505050505090505b90565b600160a060020a031660009081526020819052604090206004015490565b60806040519081016040908152600080835260208301819052908201819052606082015290565b81548183558181151161052a5760008381526020902061052a918101908301610949565b60206040519081016040526000815290565b6108cb91905b80821115610645576000815560010161094f5600a165627a7a723058204ac412a6a7c74d8b4ca6f938db59e8d77d89b69d7242f31c67885f358db5f53b0029",
  "source": "pragma solidity ^0.4.19;\n\ncontract TodoList {\n     struct Todo {\n        uint id;\n        bytes32 hash1;\n        bytes32 hash2;\n        bool completed;\n    }\n    \n    struct User {\n        string name;\n        uint id;\n        uint todoCount;\n        mapping(uint => Todo) todoMap;\n        uint[] todoListIds;\n    }\n\n    mapping (address => User) public users;\n    address[] public userAccts;\n    uint count = 1;\n    \n    //note: createAccount must be called before adding todos\n    function createAccount() public returns (address) {\n        if (users[msg.sender].id != 0) {\n            return; //if already set, don't set store again\n        }\n        var user = users[msg.sender];\n        user.todoCount = 0; //keep track of todos for each user\n        user.id = count;\n        count ++;\n        userAccts.push(msg.sender);\n        return msg.sender;\n    }\n    \n    function getTodoListLength(address _account) view public returns(uint) {\n        return users[_account].todoListIds.length;\n    }\n\n    function getAllUsers() view public returns (address[]) {\n        return userAccts;\n    }\n    \n    //returns user name/id and all todos associated with you account\n    function getMyData(address _account) view public returns (uint[], bytes32[],bytes32[], bool[]) {\n        var user = users[_account];\n        var lengthOfTodoList = user.todoListIds.length;\n        uint[] memory ids = new uint[](lengthOfTodoList);\n        bool[] memory complete = new bool[](lengthOfTodoList);\n        bytes32[] memory hashes1 = new bytes32[](lengthOfTodoList);\n        bytes32[] memory hashes2 = new bytes32[](lengthOfTodoList);\n        \n        for (uint i = 0; i < user.todoListIds.length; i++) {\n            var current = user.todoListIds[i];\n            Todo memory currentTodo = user.todoMap[current];\n            ids[i] = currentTodo.id;\n            hashes1[i] = currentTodo.hash1;\n            hashes2[i] = currentTodo.hash2;\n            complete[i] = currentTodo.completed;\n        }\n        \n        return (ids, hashes1, hashes2, complete);\n    }\n    \n    function addTodo(bytes32 _hash1, bytes32 _hash2, address _account) public {\n        var user = users[_account];\n        Todo memory todo = Todo(user.todoCount, _hash1, _hash2, false);\n        user.todoMap[user.todoCount] = todo;\n        user.todoListIds.push(user.todoCount);\n        user.todoCount ++;\n    }\n    \n    function toggleComplete(address _account, uint _id) public payable {\n         var user = users[_account];\n         \n        if (user.todoMap[_id].completed) {\n                user.todoMap[_id].completed = false;\n            } else {\n                user.todoMap[_id].completed = true;\n            }\n        }\n            \n    function deleteTodo(address _account, uint _id) public payable {\n        var user = users[_account];\n        user.todoListIds[_id] = user.todoListIds[user.todoListIds.length-1];\n        user.todoListIds.length--;\n    }\n\n}\n",
  "sourcePath": "/Users/m_655507/Documents/Projects/BlockChain/react_todo_uport/src/ethereum/contracts/TodoList.sol",
  "compiler": {
    "name": "solc",
    "version": "0.4.19+commit.c4cbbb05.Emscripten.clang"
  },
  "schemaVersion": "1.0.1",
  "updatedAt": "2018-02-10T22:05:13.877Z"
}